:100000000C9435000C945D000C945D000C945D0024
:100010000C945D000C945D000C945D000C945D00EC
:100020000C945D000C945D000C945D000C945D00DC
:100030000C945D000C945D000C945D000C945D00CC
:100040000C9442030C945D000C9410030C94EA028F
:100050000C945D000C945D000C945D000C945D00AC
:100060000C945D000C945D00250511241FBECFEF9C
:10007000D8E0DEBFCDBF11E0A0E0B1E0E0E7FFE0F7
:1000800002C005900D92A23DB107D9F722E0A2ED82
:10009000B1E001C01D92A837B207E1F710E0C5E357
:1000A000D0E004C02197FE010E94B007C433D107FD
:1000B000C9F70E948C030C94B6070C940000AF9211
:1000C000BF92CF92DF92EF92FF920F931F93CF9345
:1000D000DF936C017B018B01040F151FEB015E01A7
:1000E000AE18BF08C017D10759F06991D601ED913C
:1000F000FC910190F081E02DC6010995892B79F7DB
:10010000C501DF91CF911F910F91FF90EF90DF908C
:10011000CF90BF90AF900895FC01538D448D252F53
:1001200030E0842F90E0821B930B541710F0CF9691
:10013000089501970895FC01918D828D981761F0C3
:10014000A28DAE0FBF2FB11D5D968C91928D9F5FDA
:100150009F73928F90E008958FEF9FEF0895FC01B9
:10016000918D828D981731F0828DE80FF11D858D6C
:1001700090E008958FEF9FEF0895FC01918D228DFF
:10018000892F90E0805C9F4F821B91098F73992784
:1001900008958BED91E00E94BD0021E0892B09F4C8
:1001A00020E0822F089580E090E0892B29F00E94C2
:1001B000C90081110C9400000895FC01A48DA80FC2
:1001C000B92FB11DA35ABF4F2C91848D90E0019699
:1001D0008F739927848FA689B7892C93A089B189B9
:1001E0008C91837080648C93938D848D981306C05A
:1001F0000288F389E02D80818F7D80830895EF92BE
:10020000FF920F931F93CF93DF93EC0181E0888FD0
:100210009B8D8C8D98131AC0E889F989808185FFA0
:1002200015C09FB7F894EE89FF896083E889F98942
:1002300080818370806480839FBF81E090E0DF9144
:10024000CF911F910F91FF90EF900895F62E0B8D97
:1002500010E00F5F1F4F0F731127E02E8C8D8E1152
:100260000CC00FB607FCFACFE889F989808185FFB9
:10027000F5CFCE010E94DD00F1CFEB8DEC0FFD2F0D
:10028000F11DE35AFF4FF0829FB7F8940B8FEA8974
:10029000FB8980818062CFCFCF93DF93EC01888D83
:1002A0008823B9F0AA89BB89E889F9898C9185FDF1
:1002B00003C0808186FD0DC00FB607FCF7CF8C917F
:1002C00085FFF2CF808185FFEDCFCE010E94DD005A
:1002D000E9CFDF91CF9108958E50806480937C00A8
:1002E00080917A00806480937A0080917A0086FD04
:1002F000FCCF809178009091790008953FB7F894F1
:100300008091D7019091D801A091D901B091DA01E3
:1003100026B5A89B05C02F3F19F00196A11DB11D60
:100320003FBFBA2FA92F982F8827BC01CD01620F9C
:10033000711D811D911D42E0660F771F881F991F57
:100340004A95D1F70895CF92DF92EF92FF920E94E3
:100350007E016B017C010E947E016C197D098E0972
:100360009F09683E734081059105A8F3FF90EF90C7
:10037000DF90CF900895FC0101900020E9F73197BC
:10038000AF01481B590BBC018BED91E00C945F0051
:100390008F929F92AF92BF920F931F93CF93DF9351
:1003A000CDB7DEB7A1970FB6F894DEBF0FBECDBFB5
:1003B00019A2423008F44AE08E010F5D1F4F842ECF
:1003C000912CB12CA12CA50194010E948E07E62F3F
:1003D000B901CA01EA30F4F4E05DD801EE938D0171
:1003E000232B242B252B79F790E080E0109719F030
:1003F000CD010E94BB01A1960FB6F894DEBF0FBEDF
:10040000CDBFDF91CF911F910F91BF90AF909F9083
:100410008F900895E95CE1CF0C94BB014F925F92FD
:100420006F927F928F929F92AF92BF92CF92DF9204
:10043000EF92FF920F931F93CF936B017C01742E69
:10044000AC019B010E948907882399F082E191E029
:10045000CF911F910F91FF90EF90DF90CF90BF90C1
:10046000AF909F908F907F906F905F904F900C9483
:10047000BB0146015701E894B7F82FEF3FEF4FE774
:100480005FE7C501B4010E94890781110DC02FEFFC
:100490003FEF4FE75FE7C501B4010E94BF051816A3
:1004A0001CF486E191E0D4CF2FEF3FEF4FE75FE4FC
:1004B000C701B6010E94170718161CF48AE191E0E3
:1004C000C7CF2FEF3FEF4FE75FECC701B6010E94A8
:1004D000BF0587FDF3CF20E030E0A901C701B601D9
:1004E0000E94BF0510E000E087FF0AC06DE28BEDBF
:1004F00091E00E94FF008C01F7FAF094F7F8F09475
:10050000C0E060E070E080E09FE37C1641F020E016
:1005100030E040E251E40E94C405CF5FF6CFA7016E
:1005200096010E9453052B013C010E9436064B01A7
:100530005C014AE00E94C8017C01E00EF11ECC2360
:10054000C1F1C501B4010E9465069B01AC01C30164
:10055000B2010E9452054B015C016EE28BED91E00D
:100560000E94FF00E80EF91EC15018F120E030E0B3
:1005700040E251E4C501B4010E941C072B013C017B
:100580000E9436064B01B12CA12C4AE0C501B401F2
:100590000E94C801E80EF91EC501B4010E9465065B
:1005A0009B01AC01C301B2010E9452054B015C01E9
:1005B000DBCFC701CF911F910F91FF90EF90DF909C
:1005C000CF90BF90AF909F908F907F906F905F90F3
:1005D0004F9008951F920F920FB60F9211242F93F0
:1005E0003F934F935F936F937F938F939F93AF93BB
:1005F000BF93EF93FF938BED91E00E94DD00FF919D
:10060000EF91BF91AF919F918F917F916F915F918A
:100610004F913F912F910F900FBE0F901F90189503
:100620001F920F920FB60F9211242F938F939F93C7
:10063000EF93FF93E091EB01F091EC018081E09169
:10064000F101F091F20182FD1BC090818091F401D3
:100650008F5F8F732091F501821741F0E091F401D3
:10066000F0E0E552FE4F958F8093F401FF91EF91FA
:100670009F918F912F910F900FBE0F901F90189503
:100680008081F4CF1F920F920FB60F9211242F93F7
:100690003F938F939F93AF93BF938091D30190919A
:1006A000D401A091D501B091D6013091D20123E0BF
:1006B000230F2D3758F50196A11DB11D2093D201AE
:1006C0008093D3019093D401A093D501B093D60128
:1006D0008091D7019091D801A091D901B091DA0110
:1006E0000196A11DB11D8093D7019093D801A093CD
:1006F000D901B093DA01BF91AF919F918F913F9152
:100700002F910F900FBE0F901F90189526E8230F82
:100710000296A11DB11DD2CF789484B5826084BDAC
:1007200084B5816084BD85B5826085BD85B58160F5
:1007300085BD80916E00816080936E001092810073
:10074000809181008260809381008091810081602E
:1007500080938100809180008160809380008091EF
:10076000B10084608093B1008091B000816080937B
:10077000B00080917A00846080937A0080917A0042
:10078000826080937A0080917A00816080937A0001
:1007900080917A00806880937A001092C100E09185
:1007A000EB01F091EC0182E08083E091E701F091B0
:1007B000E8011082E091E901F091EA018FEC808379
:1007C0001092F301E091EF01F091F00186E0808357
:1007D000E091ED01F091EE01808180618083E091F4
:1007E000ED01F091EE01808188608083E091ED0160
:1007F000F091EE01808180688083E091ED01F091BD
:10080000EE0180818F7D8083C0E0D0E004E610E0BF
:10081000C12CD12C76018FE00E946C01092E000CB6
:10082000AA0BBB0BC80ED91EEA1EFB1E0E94A30119
:100830000150110981F7C701B6010E94670620E047
:1008400030E048EC52E40E94C40520E030EC4FE771
:1008500054E40E94C40520E030E048EC52E40E94D9
:100860001C0720E030E040E253E40E9453056B0196
:100870007C0104E610E0812C912C54018EE00E9452
:100880006C01092E000CAA0BBB0B880E991EAA1E28
:10089000BB1E0E94A3010150110981F7C501B401DB
:1008A0000E94670620E030E048EC52E40E94C40554
:1008B00020E030EC4FE754E40E94C40520E030E033
:1008C00040EA51E40E941C074B015C01A70196011C
:1008D0000E941C0726E636E646E65FE30E941C07F8
:1008E0002B013C0120E030E042E753E4C701B601B0
:1008F0000E94170711E0181664F020E030E046E48B
:1009000053E4C701B6010E94BF05182F111F11271C
:10091000111F8AE491E00E940C0289E291E00E949A
:100920000C028FE391E00E940C028CE491E00E94A3
:100930000C0241E0C701B6010E940E028DE391E076
:100940000E940C0289E591E00E940C0243E0C5017F
:10095000B4010E940E028DE391E00E940C0288E631
:1009600091E00E940C0241E0C301B2010E940E021C
:100970008DE391E00E940C0285E791E00E940C0259
:1009800042E066E676E686E69FE30E940E0288E88D
:1009900091E00E940C028BE891E00E940C0287E932
:1009A00091E00E940C0220E030EA4CE855E4C301DB
:1009B000B2010E94170718160CF441C083E291E0BF
:1009C0000E940C028DE391E00E940C0287EA91E004
:1009D0000E940C0220E030E040E951E4C501B4017E
:1009E0000E941707181674F183E291E00E940C022E
:1009F0008DE391E00E940C0289EB91E00E940C02D1
:100A000083E291E0112311F08EE191E00E940C024B
:100A10008CEC91E00E940C028CEC91E00E94BB01F6
:100A20008EEC91E00E94BB01209709F4EFCE0E946A
:100A3000C900882309F4EACE0E940000E7CE8EE1C7
:100A400091E0BECF8EE191E0D1CFEBEDF1E01382EA
:100A5000128288EE93E0A0E0B0E084839583A683C1
:100A6000B78384E091E09183808385EC90E0958763
:100A7000848784EC90E09787868780EC90E0918B68
:100A8000808B81EC90E0938B828B82EC90E0958B55
:100A9000848B86EC90E0978B868B118E128E138E52
:100AA000148E08955058BB27AA270E946A050C94FB
:100AB000DD060E94CF0638F00E94D60620F039F4F9
:100AC0009F3F19F426F40C94CC060EF4E095E7FB56
:100AD0000C94C606E92F0E94EE0658F3BA17620777
:100AE00073078407950720F079F4A6F50C94100796
:100AF0000EF4E0950B2EBA2FA02D0B01B901900139
:100B00000C01CA01A0011124FF27591B99F0593F7C
:100B100050F4503E68F11A16F040A22F232F342FC4
:100B20004427585FF3CF469537952795A795F04012
:100B30005395C9F77EF41F16BA0B620B730B840B27
:100B4000BAF09150A1F0FF0FBB1F661F771F881FDF
:100B5000C2F70EC0BA0F621F731F841F48F4879537
:100B600077956795B795F7959E3F08F0B0CF939529
:100B7000880F08F09927EE0F9795879508950E94A2
:100B8000A20608F481E008950E94D8050C94DD06C1
:100B90000E94D60658F00E94CF0640F029F45F3F2D
:100BA00029F00C94C60651110C9411070C94CC0634
:100BB0000E94EE0668F39923B1F3552391F3951B38
:100BC000550BBB27AA2762177307840738F09F5F6E
:100BD0005F4F220F331F441FAA1FA9F335D00E2EDB
:100BE0003AF0E0E832D091505040E695001CCAF748
:100BF0002BD0FE2F29D0660F771F881FBB1F26170B
:100C000037074807AB07B0E809F0BB0B802DBF01E1
:100C1000FF2793585F4F3AF09E3F510578F00C94B0
:100C2000C6060C9411075F3FE4F3983ED4F3869513
:100C300077956795B795F7959F5FC9F7880F911DD1
:100C40009695879597F90895E1E0660F771F881FBD
:100C5000BB1F621773078407BA0720F0621B730B70
:100C6000840BBA0BEE1F88F7E09508950E94F606F4
:100C700088F09F5798F0B92F9927B751B0F0E1F05D
:100C8000660F771F881F991F1AF0BA95C9F714C00D
:100C9000B13091F00E941007B1E008950C94100754
:100CA000672F782F8827B85F39F0B93FCCF3869546
:100CB00077956795B395D9F73EF4909580957095A3
:100CC00061957F4F8F4F9F4F0895E89409C097FB20
:100CD0003EF490958095709561957F4F8F4F9F4F13
:100CE0009923A9F0F92F96E9BB279395F695879557
:100CF00077956795B795F111F8CFFAF4BB0F11F41A
:100D000060FF1BC06F5F7F4F8F4F9F4F16C08823C0
:100D100011F096E911C0772321F09EE8872F762FF6
:100D200005C0662371F096E8862F70E060E02AF037
:100D30009A95660F771F881FDAF7880F9695879523
:100D400097F90895990F0008550FAA0BE0E8FEEFF8
:100D500016161706E807F907C0F012161306E4077F
:100D6000F50798F0621B730B840B950B39F40A2678
:100D700061F0232B242B252B21F408950A2609F456
:100D8000A140A6958FEF811D811D089597F99F675A
:100D900080E870E060E008959FEF80EC0895002403
:100DA0000A941616170618060906089500240A94D0
:100DB00012161306140605060895092E0394000C56
:100DC00011F4882352F0BB0F40F4BF2B11F460FFE5
:100DD00004C06F5F7F4F8F4F9F4F089557FD90580E
:100DE000440F551F59F05F3F71F04795880F97FBEF
:100DF000991F61F09F3F79F08795089512161306A9
:100E00001406551FF2CF4695F1DF08C016161706D7
:100E10001806991FF1CF869571056105089408950C
:100E2000E894BB2766277727CB0197F908950E949E
:100E3000A20608F48FEF08950E942F070C94DD0698
:100E40000E94CF0638F00E94D60620F0952311F0BC
:100E50000C94C6060C94CC0611240C9411070E9425
:100E6000EE0670F3959FC1F3950F50E0551F629FFA
:100E7000F001729FBB27F00DB11D639FAA27F00DF3
:100E8000B11DAA1F649F6627B00DA11D661F829F1A
:100E90002227B00DA11D621F739FB00DA11D621FFF
:100EA000839FA00D611D221F749F3327A00D611D1C
:100EB000231F849F600D211D822F762F6A2F1124FE
:100EC0009F5750409AF0F1F088234AF0EE0FFF1F31
:100ED000BB1F661F771F881F91505040A9F79E3F88
:100EE000510580F00C94C6060C9411075F3FE4F3A3
:100EF000983ED4F3869577956795B795F795E795DE
:100F00009F5FC1F7FE2B880F911D9695879597F9E6
:100F100008950E94A206880B990B0895A1E21A2E4B
:100F2000AA1BBB1BFD010DC0AA1FBB1FEE1FFF1F8D
:100F3000A217B307E407F50720F0A21BB30BE40BDD
:100F4000F50B661F771F881F991F1A9469F7609524
:100F50007095809590959B01AC01BD01CF010895DE
:100F6000EE0FFF1F0590F491E02D0994F894FFCF48
:100F700000000000FF005F008C004C01BD009B00E2
:100F8000AF006E616E00696E66006F766600747207
:100F900075650066616C73650022636173615F69EA
:100FA00064223A2247454E4552494341222C0022B1
:100FB0006D65646963696F6E223A7B002274656EA9
:100FC00073696F6E5F76223A0022636F7272696591
:100FD0006E74655F61223A0022636F6E73756D6F88
:100FE0005F77223A0022666163746F725F706F747C
:100FF000656E636961223A007D2C0022616C657226
:10100000746173223A7B00227069636F5F636F6E55
:1010100073756D6F223A0022736F627265636F722F
:101020007269656E7465223A002274656E73696F29
:101030006E5F63726974696361223A007D000D0A14
:021040000000AE
:00000001FF
